:0200000410FFEB
:04FFFC0000000C06EF
:020000041100E9
:100000009807001829010011310100118524001101
:100010003501001137010011390100110000000005
:100020000000000000000000000000003B01001183
:100030003D010011000000003F010011C13A001114
:1000400089220011430100114301001143010011F5
:10005000F11000114301001143010011430100118F
:1000600043010011430100117D3F0011CD3F0011FC
:1000700043010011811E00114301001143010011D1
:100080004301001143010011ED0C00114301001167
:10009000430100114301001143010011430100110C
:1000A00000F002F800F030F80CA030C8083824182E
:1000B0002D18A246671EAB4654465D46AC4201D1A0
:1000C00000F022F87E460F3E0FCCB64601263342A2
:1000D00000D0FB1AA246AB463343184784560000B3
:1000E000A45600000023002400250026103A01D366
:1000F00078C1FBD8520700D330C100D50B607047E0
:100100001FB51FBD10B510BD00F043F91146FFF734
:10011000F7FF05F0E3FA00F05BF903B4FFF7F2FF35
:1001200003BC00F061F90000094880470948004716
:10013000FEE7FEE7FEE7FEE7FEE7FEE7FEE7FEE797
:10014000FEE7FEE704480549034A054B70470000F7
:10015000FD3A0011A1000011980500189807001839
:100160009805001801E004C0091F0429FBD28B0781
:1001700001D50280801CC90700D002707047002999
:100180000BD0C30702D00270401C491E022904D3C1
:10019000830702D50280801C891EE3E70022EEE778
:1001A0000022DFE7002203098B4273D3030A8B424C
:1001B00058D3030B8B423CD3030C8B4221D312E068
:1001C00003460B437FD4002243088B4274D30309B8
:1001D0008B425FD3030A8B4244D3030B8B4228D359
:1001E000030C8B420DD3FF22090212BA030C8B427F
:1001F00002D31212090265D0030B8B4219D300E01F
:10020000090AC30B8B4201D3CB03C01A5241830BA3
:100210008B4201D38B03C01A5241430B8B4201D353
:100220004B03C01A5241030B8B4201D30B03C01A7C
:100230005241C30A8B4201D3CB02C01A5241830AF6
:100240008B4201D38B02C01A5241430A8B4201D325
:100250004B02C01A5241030A8B4201D30B02C01A4F
:100260005241CDD2C3098B4201D3CB01C01A5241B6
:1002700083098B4201D38B01C01A524143098B423F
:1002800001D34B01C01A524103098B4201D30B0128
:10029000C01A5241C3088B4201D3CB00C01A52414D
:1002A00083088B4201D38B00C01A524143088B4212
:1002B00001D34B00C01A5241411A00D201465241AB
:1002C000104670475DE0CA0F00D04942031000D3CA
:1002D0004042534000229C4603098B422DD3030A1F
:1002E0008B4212D3FC22890112BA030A8B420CD32F
:1002F000890192118B4208D3890192118B4204D358
:1003000089013AD0921100E08909C3098B4201D3D7
:10031000CB01C01A524183098B4201D38B01C01A11
:10032000524143098B4201D34B01C01A5241030988
:100330008B4201D30B01C01A5241C3088B4201D337
:10034000CB00C01A524183088B4201D38B00C01AE4
:100350005241D9D243088B4201D34B00C01A5241BB
:10036000411A00D20146634652415B10104601D348
:100370004042002B00D54942704763465B1000D3D2
:10038000404201B50020C046C04602BD70477047DC
:100390007047754600F024F8AE460500694653469E
:1003A000C008C000854618B020B5FFF7CBFE60BC82
:1003B00000274908B6460026C0C5C0C5C0C5C0C58F
:1003C000C0C5C0C5C0C5C0C5403D49008D467047C9
:1003D00010B50446C046C0462046FFF79EFE10BD3D
:1003E000004870473805001801491820ABBEFEE7E9
:1003F00026000200704770B58C180578401C6B070A
:100400005B0F01D10378401C2A1106D10278401CF1
:1004100003E00678401C0E70491C5B1EF9D12B07C7
:1004200005D40023521E0DD40B70491CFAE7037843
:10043000401CCB1A921C03E01D780D70491C5B1CFC
:10044000521EF9D5A142D8D3002070BD034610B486
:100450000020174A0C2902D28C00A21804E00D29B2
:1004600001D2144A00E0144A1468640CE407E40F53
:1004700019D010680005820D0120002A15D002292C
:1004800001D20E4909E0062901D20D4905E00D29E6
:1004900001D20C4901E0D72109014A434908511A08
:1004A0008901090C198010BC70470021FAE700008F
:1004B000704000401041004040410040A6640000F0
:1004C0004B790000D7140000F8B5314E2F48F06288
:1004D00031493048086248628862C86208634863EC
:1004E0002E4D28632F4C2E4820622F4A0020106387
:1004F0002E4B8B612E4BCB612E4B4B618860C860BD
:100500002E4F2D4BFB6310622D4BD8635860FF2795
:100510005F6120636063A063E0631060506090607F
:10052000D060106150612861264A10602862264A16
:100530002260264A9A606060421FDA60E202AA6185
:10054000234AEA61A0628A13EA60224F3860306A67
:100550004008400030628A69012002438A610A68CB
:10056000824302430A600026FF20F53001F06CFA56
:1005700003F08AFE761CF6B2142EF5D30020C04399
:10058000E062A860C0073860F8BD00000F030000FB
:10059000405000509721972100400040004100400A
:1005A000F8CF030C404000408040004001090900A2
:1005B000BF2100003F20000000010304C050005094
:1005C000C0400040404100403B360000C6CBFFFF2A
:1005D000020202021C5000500E480D4981610422A3
:1005E000C2610E480C4901600D49C160C72109066E
:1005F00041600C490161C72181600D21490481617D
:1006000041620021C16181620162074882637047D3
:100610000109000000C00148002918C280C001483B
:10062000EAEAE2DBD700FD0040C00148F8B500F07F
:10063000F9FF244D287000F0C7FA234C234920709D
:100640000978012901D0032938D1214900228A5E85
:10065000204900268E5F00211F4BB2422FDB1F4E28
:10066000775EBA422BDC2E78012E09D0012807D004
:10067000022E23D11A4819701A4A008810801FE0F0
:10068000194B03201870194B05201870184B0120C6
:100690001870184B1970184B1970184B1870184BAC
:1006A0001970184B197018490860A28000F068F999
:1006B0001649A088098840186080E080F8BD19704C
:1006C0002970F8BDAF010018F800001810010018DB
:1006D0003E010018D801001896010018D601001834
:1006E000380100183C010018B7010018B8010018C3
:1006F000640000181701001816010018980100186E
:10070000990100189A0100186C010018D401001812
:10071000F8B57849012001F077FD774C0028E060BA
:100720007ED17648417F027F0802104360807E219F
:10073000704803F07FFF20806188814270D16D4C4A
:100740006F4E22796F487049704F714D3270002A98
:1007500067D062782378120612141A430280A078B8
:1007600008702046817A427A0906091411433980BB
:1007700069792A79090609141143664A664F11807E
:10078000827941791006001408433880B42004F0BF
:10079000C7FF62490880FF20143004F0C1FF398888
:1007A00040185F490880192004F0BAFF39884018C2
:1007B0005C4908801D2004F0B3FF398840185A496D
:1007C0000880142004F0ACFF39884018574908808D
:1007D000022004F0A5FF39884018554908800F20F1
:1007E00004F09EFF3988081A524908800F2004F04F
:1007F00097FF3988401850490880FF20EB3004F0FB
:100800008FFF4E49012708804D4807703078032834
:100810002BD1142004F084FF3E4E3188081A01E0E9
:1008200063E019E0474908800A2004F079FF318825
:10083000081A454908800F2004F072FF3188081A11
:10084000424908800F2004F06BFF3188401840496E
:1008500008804048077008E0002202800A70327069
:100860002C483A8002802C4802803B49E07808708E
:10087000082029180A7810464A78120210438A780C
:10088000C978120410430906084334490860687B9C
:10089000297B00020843324908803249607C087095
:1008A0003149A07C087031490B79CA7918464B79D7
:1008B00012061B0218438B791B04184310432C4A61
:1008C0001060082009180A7810464A78120210436E
:1008D0008A78C9781204104309060843254908603C
:1008E00025490020087025490870012001F038FCD6
:1008F000F8BD000038040018100200189A0400180F
:10090000100100183E010018B80100185C01001821
:100910003B0400185A01001858010018D4010018AF
:10092000D6010018D8010018DE010018E0010018F7
:10093000DC010018E4010018E6010018EC010018C1
:1009400088010018E2010018DA010018E801001817
:10095000EA0100188901001814010018600100184C
:100960004E0100188E0100185F0100187A0400186B
:100970007C010018BC0100181701001816010018AE
:1009800010B48A48C17801718178C1704178817052
:100990000178417086490978017086481021421813
:1009A0001378194653781B0219439378D2781B04A5
:1009B00019431206114301750A0A42750A0C827521
:1009C000090EC1750C2142181378194653781B0281
:1009D00019439378D2781B0419431206114301740A
:1009E0000A0A42740A0C8274090EC1740821421862
:1009F0001378194653781B0219439378D2781B0455
:100A000019431206114301730A0A42730A0C8273D6
:100A1000090EC1730379C2791946437912061B0284
:100A2000194383791B041943114301720A0A427264
:100A30000A0C8272090EC1725F49096801710A0AC3
:100A400042710A0C8271090EC1715C490C79CB7933
:100A500022464C791B06240222438C79240422432B
:100A60001A430A72130A4B72130C8B72120ECA725B
:100A70000C78CB7822464C781B06240222438C78D3
:100A8000240422431A430A71130A4B71130C8B710D
:100A9000120ECA711C2283181C7822465C7824022C
:100AA00022439C78DB78240422431B061A430A70F5
:100AB000130A4B70130C8B70120ECA701822831815
:100AC0001C7822465C78240222439C78DB7824043C
:100AD00022431B061A430277130A4377130C8377CA
:100AE000120EC277364A12680276130A4376130C46
:100AF0008376120EC27618200A1813781846537897
:100B00001B0218439378D2781B0418431206104333
:100B10000877020A4A77020C8A77000EC8771420F9
:100B20000A181378184653781B0218439378D27822
:100B30001B041843120610430876020A4A76020C78
:100B40008A76000EC87610200A1813781846537853
:100B50001B0218439378D2781B04184312061043E3
:100B60000875020A4A75020C8A75000EC8750C20B9
:100B70000A181378184653781B0218439378D278D2
:100B80001B041843120610430874020A4A74020C2C
:100B90008A74000EC8740B4800680873020A4A730E
:100BA000020C8A73000EC87310BC7047B80300189B
:100BB00054010018B9030018C8010018D90300181F
:100BC000C4010018C00100180B480C490A23002278
:100BD000C35E8A5E0021934208D103895B1C9BB2ED
:100BE0000381142B04D30121817002E08170018103
:100BF00081704281C8B27047000100183E010018A0
:100C0000F0B42548254C057800200121244B254AC5
:100C1000002D0FD0244E0627355E244EF75FBD42CF
:100C200015DA234D2D78022D11D002201870117085
:100C3000F0BC704721701F4C2170022119701E49B1
:100C4000107008701E481D490180F0BC7047187074
:100C50001B4B18801B4B187010701B4A1D4B1070DB
:100C60001A4A10701A4A1070124A207010701A78BE
:100C7000521C1A70184A10801848017018490878D8
:100C8000401C087017490878401C08701648016815
:100C9000491C0160F0BC7047A501001899010018BB
:100CA000B6010018940100183E010018F800001861
:100CB000B80100189A01001896010018CF0700002B
:100CC0003C010018B7010018AF010018A00100187E
:100CD00098010018500100184A0100189E010018E0
:100CE0005E0100185F0100187C01001870B5414CCE
:100CF000A06B414D800DC007C00F09D0206B800D47
:100D0000C007C00F04D001F054FB0120800528600B
:100D1000A06B8009C007C00F08D0206B8009C007F6
:100D2000C00F03D001F047FB40202860A06B800F6C
:100D3000C007C00F09D0206B800FC007C00F04D0C0
:100D400001F06DFC012080072860A06B800BC007BC
:100D5000C00F09D0206B800BC007C00F04D001F07A
:100D600060FC012080032860A06B000DC007C00F4D
:100D700009D0206B000DC007C00F04D001F018FB94
:100D8000012000052860A06BC006C00F07D0206BB3
:100D9000C006C00F03D001F041FC10202860A06BFA
:100DA000000FC007C00F09D0206B000FC007C00F95
:100DB00004D001F0FFFA012000072860A06B000BAF
:100DC000C007C00F09D0206B000BC007C00F04D0B4
:100DD00001F026FC012000032860A06B002807DA40
:100DE000206B002804DA01F019F80120C007286000
:100DF00070BD0000C0400340F4400340F0B42249FD
:100E00002048086121499822CA62214B1868440889
:100E10006400012004431C60A823CB621E481D4CC3
:100E20004462CA62046A0325AD062C401B4D641956
:100E30000462CB62CA621A4A8261CB62194981603C
:100E400000220260426002611749C1601849174ED2
:100E50004E62184D8D62184B0B618B6120244C61E2
:100E6000164FCF61164F7E60BD600B638B634C6382
:100E7000CC636B1043630363134B124898638A601F
:100E8000F0BC7047010900004051005080500050F4
:100E9000545000501FD200000040034001001310C6
:100EA00003030C30000007031A0008002000200094
:100EB00040400340404000001D0202032003032085
:100EC00080400340505050D0C04003401B060904EE
:100ED0000B4311020B4303430148036070470000BA
:100EE000004003401E480078012838D11D48007892
:100EF000012834D01C484078400630D41B4A117871
:100F000032292CD81A480078012828D110B4194B5E
:100F10000020185E184B00241C5FA0421DDB174BFD
:100F200000201870164B1B4C1870164B491C18707B
:100F3000154B1880154B1870154B18700123237032
:100F4000154B1870154B1870117015490878401C16
:100F5000087014490878401C087010BC704770472E
:100F600016010018840100183803001881010018C8
:100F7000140100183E010018DA010018940100184D
:100F800095010018960100183C010018B6010018E0
:100F9000B7010018B8010018990100189A0100184B
:100FA0005E0100185F010018F8B5434F434E40251D
:100FB0000024012824D0424807803580001D078086
:100FC00035804048414D04803F4898270078404E86
:100FD00001284CD0022862D06C62F7622C62A820F3
:100FE000F06200231A4619461846FFF76FFF394989
:100FF0000220087038483949047001200870F8BD93
:101000007D208001081A36498842F8D8314804709A
:10101000FFF7F4FE7D20000100F016FD00F08CF8D3
:101020007D20000100F010FD254807803580001D5F
:1010300007803580022535807D20000100F004FD09
:1010400003231A4619461846FFF740FF7D2000018A
:1010500000F0FAFC2349E81E48601E490120087090
:101060001D4908701D4804701F480560F8BD032322
:101070001A4619461846FFF729FF1C4800F0E4FC01
:1010800000231A4619461846FFF720FF642000F097
:10109000DBFC6C62F7622C62A820F062A7E70323F6
:1010A0001A4619461846FFF711FF6C62F7622C6268
:1010B000A820F0629BE70000CF07000004C00040BA
:1010C00014C000403C010018B60100180040034065
:1010D00080500050130100188B0100188F01001878
:1010E000B036000040400340084100408813000033
:1010F0000C484069C00713D010B50B488088012404
:10110000400A204009D009480089400A204004D004
:1011100002F016F80649481508800648046010BD1C
:10112000704700000050005040C0004060C00040C8
:101130000CC0004098510050FF2013490130088234
:10114000124888801248088100208881114A9082C4
:1011500010839083088010490883104A10800F2361
:101160008B83888233230B80088208814B158B8008
:1011700015210B4B4902198090819082094840212A
:10118000018001140180704720C00040CF0700009B
:101190001F4E000000C0004040C0004060C0004042
:1011A00080C0004004C0004001490320086070472F
:1011B0000080014810B501F0CBFC10BD30B5134BD9
:1011C0001878002802D000F08DF830BD104C11497D
:1011D0006578114A0120012D10D1104D2D78002D78
:1011E0000CD10F4D2D78012D01D0032D06D124787F
:1011F000012C03D10B4C2478012C03D00870107003
:10120000187030BD087002211170F9E7AE010018A6
:10121000D0000018B6010018B7010018AC01001882
:101220001001001814010018F0B5284A294E17784B
:101230000224274B35780121002F0AD0012F34D00A
:10124000022F05D1002D33D0042816D0022812D049
:10125000F0BD002D02D000F045F8F0BD0628FCD20C
:1012600005007D442D796D19AF440202050A070D72
:1012700000F076F9F0BD197000E01C701170F0BD3F
:10128000FFF79CFFF0BD14484578012D06D1134DA2
:101290002D78002D02D10078012803D01C70117028
:1012A0003170F0BD1C701470FAE700F04BF8F0BD1F
:1012B0000028FCD019780A4A022901D10128F6D069
:1012C00000F010F81078401C1070F0BDB701001845
:1012D000B6010018AE010018D0000018AC010018CB
:1012E0005E0100180C49002008700C4908700C4978
:1012F00008700C4908700C4908700C4908700C49BA
:1013000008700C4908700C4908700C4908700C49A9
:101310000120087070470000B6010018B7010018DE
:10132000940100189601001895010018AB010018EF
:1013300098010018990100189A0100189C010018E2
:10134000AE010018F0B562495E4A4D785F4CAC467C
:1013500017780D785C4B26780121002F11D05D4C59
:101360002478641CE4B2012F31D0022F15D1062855
:1013700013D207007F443F79FF19BF447B0E82825E
:10138000898F062809D204007C4424792419A744B3
:101390000202050B070E00F0E3F8F0BD117001E04A
:1013A000022010701970F0BDFFF708FFF0BD604615
:1013B000012803D1002E01D1012D04D0022010708C
:1013C0001970454813E0022010701870F9E70628DC
:1013D000ECD207007F443F79FF19BF4403480A025B
:1013E0000D24E1E700F0BCF83A480178491C01708F
:1013F000F0BD11701970F0BD0220107035481970E1
:101400000470364A00201070354A1070354A10704A
:10141000354A1170354A11703549087035490870E0
:1014200035490870F0BD6046012803D1002E01D176
:10143000012D18D00220107019702748274A01701A
:101440002448047000201070254A1070254A10703E
:10145000254A1170254A11702549087025490870E0
:1014600025490870F0BD022010701870E5E7FFF7FD
:1014700039FFF0BD00F074F816480178491C01707E
:10148000F0BDFFF72FFF13480178491C0170F0BD34
:10149000022010700F4819700470F0BD60460128DA
:1014A00003D1002E01D1012D07D002201070197038
:1014B0000948017007480470F0BD022010701870D0
:1014C000F6E70000B6010018B7010018AC010018DB
:1014D000D00000185E010018AE0100189401001839
:1014E0009601001895010018AB010018980100182A
:1014F000990100189A0100189C010018F8B5114DC7
:1015000000202E781049114A114B124C124F002E18
:101510000AD0124D012E2D780DD0022E03D1012DAF
:101520000ED001F0E9F9F8BD28700880107018702D
:1015300020703870F8BD012D02D001F077FAF8BDA7
:10154000004DF1E7B60100183C010018B701001882
:1015500095010018940100189601001890010018D8
:101560000B49002008700B490A780B4908700B4999
:1015700008700B4908700B4908700B4908700B493B
:1015800008700B4908700B4908700B4908707047C8
:10159000B601001810010018B701001894010018D6
:1015A0009601001895010018AB0100189801001869
:1015B000990100189A0100189C01001800B5044810
:1015C000012141708170C07802F0C0FE00BD0000B2
:1015D000D000001801281CD110B50E480E4C8142D5
:1015E00001DBE06301E00846E1630C49801A4843EF
:1015F000616BFEF7E5FD09492062884202DAA16AC3
:10160000884201DC616200E060620549A08C0880CC
:1016100010BD7047983A000084000018CF07000002
:101620003C010018F0B42348002105882248828834
:10163000954203D9214B1B78012B03D0204B1B78FB
:10164000012B34D11F4BC8321A801F4A1F4B12681E
:101650001C68131BC3600278012A24D142781C4FF6
:10166000521CD6B246700022BA5E142E0DD0192636
:10167000B601B3421BDB174B1A80174A1580174A75
:1016800014600122C27041700EE0124E3280124A84
:101690001580124A146019229201934201DB012243
:1016A00000E00222C2704170C078F0BC7047C17087
:1016B000FAE700002401001800010018A701001833
:1016C00096010018CE0100187001001828010018BA
:1016D0003E010018340100187A0100187401001846
:1016E000F8B53448344C0078012824D1334D3448BF
:1016F00029880088002900D12880E188491C89B206
:10170000E1801E2912D10021E1802E4E2988326805
:1017100001F062F828802C4F2C4832683968006844
:1017200001F05AF838603068401C306029887D200C
:10173000C0000818A080264B1878002839D1002155
:101740002248217002682348244D02601C48224A26
:10175000008810806A5E224D2A807D25ED00A84217
:1017600027D9144D2D78012D23D1A588A84220D941
:101770001C48007801281CD11B4805686D1C0560B9
:101780001A4805780120012D01D0032D10D1184DE4
:101790002D78012D0CD1174D0026AE5FB24207DC2B
:1017A000154D0026AE5FB24202DB144A187011706C
:1017B0002070F8BDA701001800010018D201001820
:1017C000240100186801001864010018280100189D
:1017D0009601001870010018780100183E010018E9
:1017E00032010018B60100186C0100181001001831
:1017F00014010018D6010018D8010018940100182F
:10180000F8B50D215348FEF721FE534C5349207083
:101810000968534B8905890D05D0524A5143C91AAD
:1018200089010D0C00E000254F49E5810968890513
:10183000890D05D04D4A51435210891A8901090C6E
:101840004B4A11804B4A126883269205920D7243CF
:10185000494E9219D617360EB21812122282474AF2
:1018600012689205920D04D03E4E7243D21A920134
:10187000120C434B1A80434A12689205920D05D010
:10188000414B5A435B10D21A9201120C3F4B404E0F
:101890001A800122012833D1E08848438001010CDD
:1018A0002181607801280AD0A3783A481702002BDA
:1018B0001AD0A388002B1ED05B1EA38020E0A08935
:1018C000814201D8628103E0081A3C2148436081CB
:1018D0006089A06131684B01591A0818606140099C
:1018E0002D49306008800BE00168394301606420B5
:1018F000A080A27004E0A1810168B9430160627018
:1019000026480078002816D02548274F016825482A
:10191000814202D310463A6002E0FEF743FC386091
:10192000A0617168CA00511A08186061C0081F4997
:101930007060086001E01D480260A561B0680101A7
:10194000081A4019606100091949B060088000F068
:1019500069FEF8BDE2000018DC00001850C0014824
:10196000A53C00004B79000064C001484F06000010
:101970001E0100186CC00148E2EFFEFF54C0014890
:101980002001001858C00148ACCD00002201001809
:10199000200300180080014824010018930100185A
:1019A0004001001800CA9A3B2C01001828010018B9
:1019B0001C0100181A4A1078002830D1F0B41949D7
:1019C0000E78002E0FD01848002307781748184CBF
:1019D000C35E0020174D022F07D0042F03D1164EEF
:1019E000375EBB4213DDF0BC7047032E0AD1134EA5
:1019F0000027F75FBB4205DD087010702070104EA5
:101A0000287030700F4E0027F75FBB42EBDD087087
:101A1000107020700A4928700870F0BC7047704739
:101A2000B701001810010018B80100183E01001895
:101A3000B601001817010018E4010018EA010018A7
:101A400016010018EC010018F8B5294F0446B869D2
:101A5000050228482D0A411C844239D9264A94425D
:101A600036D801266042FEF7ABFB4242012A0FDB6B
:101A70007D21C900B8690002000AA842FAD3B869FA
:101A80000002000AA842FAD8641A761CB242F1DABF
:101A900028204443B8690002000AA04208D3021B70
:101AA000B9690902090A914201D98142F8D3F8BD06
:101AB0007969221A0902090A891ABA691202120AF4
:101AC0008242FAD3B8690002000A8842FAD8F8BD07
:101AD0008C42DDD3B8690002000AA842FAD3B86983
:101AE0000002000AA842FAD8641A8C42F2D2CFE768
:101AF00000E000E0E7030000FFFFFF7F46480178B9
:101B000001297DD0F8B544480021017001F04EFE56
:101B100001F014F901F032F9FEF7D6FCFEF75CFD96
:101B20003E4DA8693E4C0006C70F3E4E2770B06977
:101B300019220006C30F3C483C4912026370002F73
:101B40000DD0002B0BD003689B059B0D04D0384FA4
:101B50007B435B1A9B011B0CA380934222D2A37888
:101B6000002B25D1334F02F08FFB3870A869000697
:101B7000C00F2070B1690906C90F6170002814D028
:101B8000002912D0284800688005800D05D028491A
:101B900048434910401A8001000C19210902A08015
:101BA000884202D30120A07002E0A0780028DAD099
:101BB00000F0F0FDFFF7F8FAFFF720F901F0F0FF71
:101BC00001F0D8FF00F03AFBFFF7B6FA00F022FD73
:101BD00000F004FD00F078FC00F0C2FB01F0A4FF6F
:101BE000154904200A68824302430A60134A1168B7
:101BF000814301431160124A40201168814300E093
:101C000008E0014311600F49C0000880024901202B
:101C10000870F8BD70470000120100180040004035
:101C20007800001800C0014850C00148A53C0000E1
:101C30004B790000EE0100180040004800500048B9
:101C40000C00014004C0004070B5154815490578E6
:101C50000020154A154B164C002D04D0032D0ED034
:101C6000FFF74CFC70BD08701249088010701870A6
:101C70001149207008701149087011490BE0114D8D
:101C80002D78012DEED1104D2D78012D05D020702D
:101C9000107018700320087070BDFEF7B1FF70BDA2
:101CA000B7010018B601001894010018950100183A
:101CB000960100183C010018990100189A010018BB
:101CC0001901001814010018A0010018F0B4424ACC
:101CD000424D1678424B4022424C002E77D1424E64
:101CE0003678012E73D1414E3678012E6FD1404E99
:101CF0003678002E6BD1611A3E4E89B2B1803E4ECD
:101D00003E4F76780328B4463E782FD0012E2DD052
:101D1000384E76888E4203D1364E3678864209D0C8
:101D2000374E01280BD002280FD02C801A80354D59
:101D30002C801A802F4A10705180F0BC7047022707
:101D400037706646F6060BD504E001273770664605
:101D5000F60605D42B4E31801A802C801A80E9E7D4
:101D600029801A80274D2C801A80E3E726480078C6
:101D700000282CD00128E0D1244801780020002937
:101D80000ED00129D9D12249097800291FD0012973
:101D9000D3D1012E18D01F4901200870F0BC704724
:101DA000144988806146C90606D4164908801A80FD
:101DB0002C801A80F0BC704728801A80114804805B
:101DC0001A80F0BC704702E038701349E5E72C80B8
:101DD0001A800C480480ECE78F01001818C00040FE
:101DE00004C00040CF0700008B0100181301001849
:101DF000150100180002001838030018AB01001884
:101E00009301001814C00040A1010018A20100189D
:101E1000A3010018A00100189801001870470000E5
:101E200010B5134B00211A781248002A04D0018201
:101E300081819621C1810FE082890F4CA24202D894
:101E4000521C828105E0C289962A01D8521CC281A7
:101E50008181C089962808D308480078002803D0DB
:101E60000120187000F040F910BD197010BD00007D
:101E7000A901001860000018E70300009201001893
:101E800070B50E4CA06A0E4DC008C007C00F08D038
:101E90006068C008C007C00F03D000F08DFA0820AA
:101EA0002860A06A4007C00F07D060684007C00FD5
:101EB00003D000F0A3FA0420286070BD0050005049
:101EC000785100501948007801282DD11848007821
:101ED000012829D11749002008801749194A08709C
:101EE00016490870164908701178491C1170164A75
:101EF0001178491C117015490A68521C0A6014496E
:101F0000164A0870134908701349087001211170AE
:101F1000134A1070134A1070134A1070134A10704D
:101F2000134A10701348016070470000A4010018A4
:101F30008D0100183C01001896010018940100184A
:101F4000B70100185E0100185F0100187C0100183D
:101F500019010018B60100189E010018140100189C
:101F6000500100189D0100189C01001899010018EB
:101F70009A0100186C01001810B51248124A038823
:101F80001249934210D3028011480078032806D8E2
:101F9000002804D001200870FFF742FF10BD022086
:101FA0000870FFF73DFF10BD0020087009498A78CE
:101FB000002A03D008828881C88110BDFFF730FF56
:101FC00010BD0000300100188813000092010018B5
:101FD000AD01001860000018F8B53848384D007899
:101FE0000024384E002809D0EC8334702C72AC7277
:101FF0003548AC8304706C72EC7222E03348314B8C
:1020000007782F483249C28B32481B78032F0DD0F6
:10201000314F3F78012F09D0032F07D0052F05D06E
:10202000012B25D02C72AC72EC8308E00127002B29
:102030000AD00C70521C0470EA83012B15D0002BBF
:1020400001D126480470F8BD007803280BD0097828
:102050002972A87200210846FEF7A6FF00F0CAFB0D
:10206000012001F0C9FFEC8337701C480770F8BDF0
:102070001B4B9A421DD8124AAB7A127A012B02D01E
:10208000022B11D00BE0174F3F78022F02D0042F04
:1020900003D004E0012A07D001E0022A04D02C7208
:1020A000AC72EC833470CCE70A7003702C72AC72A3
:1020B000F7E7EC8334702C72AC72C2E7920100181F
:1020C000840200181B0100181A0100186200001891
:1020D000B6010018B70100186100001815010018BA
:1020E000B80B0000B101001810B500210846FEF73A
:1020F0005BFF0548FFF7A8FC00F05CFA012001F047
:102100007BFF01F029FB10BD50C3000010B5124940
:10211000022000F079F8114988600F494878C20719
:1021200019D10422104308221043CF231840BF23A3
:1021300018404006400E48708878FD242040FB245B
:10214000204010433022104318408870C878032282
:1021500010432040C87010BD38030018100200184A
:1021600010B50A49C0010A4C4018E06072B601205F
:1021700002F07CF80749E06809688847A06002F02F
:1021800083F80549087062B6A06810BD00B0001160
:102190004002001858570011EE01001870B50E46A5
:1021A000C1011448144C08186061E06072B6012047
:1021B00002F05CF81149E06809688847A06002F005
:1021C00063F80F4D287062B6A068206100280ED118
:1021D00072B6012002F04AF831460A4E00233668F2
:1021E00080226069B047206102F04EF8287062B624
:1021F000206970BD00B0001140020018585700114E
:10220000EE0100185C57001110B40246094B002083
:102210005860094BD201D21813780B7040235478C0
:102220004C7094788C70891C921C5B1EF7D110BC8A
:10223000704700004002001800B000110C488021D7
:1022400081600C4901621121C901C1600A494162E2
:102250000022026181624261C162C3148361074B43
:102260000363C16142600749054808607047000088
:102270000000014010270000FFFF0000E0B1000057
:10228000005A6202EC0200180848C1698907C90FA8
:102290000AD0006A8007C00F06D010B500F0F4F82D
:1022A00003490220086010BD7047000040510050F3
:1022B00080510050F0B41F4805681F48204B01783A
:1022C0001E48002604781F48002902881E480FD1A6
:1022D0007D21C9018A420AD3018B142904D3032C1E
:1022E00006D00121197003E0491C018300E0068338
:1022F0001649FF275118F537B9420BD8418B7A00A0
:10230000914204D3032C0DD0012018700AE0491C1F
:10231000418307E00E4951180E4A914202D20683CA
:1023200046831E700C48854202D00C49022008707A
:10233000F0BC70470040034061000018B70100186E
:102340008F010018520100188402001874C3FFFFA7
:10235000CBDEFFFF571B000003030303130100182C
:10236000F8B50E4C2078012816D00D4E0D4D0E4FAD
:1023700001F08AFF307028688005800D05D00B4978
:102380004843C01B8001010C00E000210120FEF742
:102390000BFE20780128EBD1F8BD000013010018D6
:1023A000EE01001850C00148A53C00004B79000028
:1023B000704770477047704710B40B4B00220B48B2
:1023C0001A7004780A48012C815E07D0022C07D0CD
:1023D0000949084808605A6010BC7047491C00E071
:1023E000491E018010BC7047F001001893010018CD
:1023F0003E01001800CA9A3B4001001870B4012148
:102400001748002301704168164A4360C160526A50
:10241000164D94B2144A141B84602A60144D154A58
:10242000002904D0144EB14203D3156005E01460B6
:1024300003E00E04711A09191160C3600F481049B6
:1024400003780020085E012B04D0022B04D0156015
:1024500070BC7047401C00E0401E088070BC704794
:10246000F001001800000140FFFF000024000140BF
:1024700000CA9A3B40010018F505000093010018BE
:102480003E0100187047000030B40A48002201786D
:10249000094B0A4C0A48002903D00A4D4168A94259
:1024A00003D34260236030BC7047491C416030BC9C
:1024B000704700009301001800CA9A3B40010018C1
:1024C000F0010018F505000070B4154900200860FF
:1024D00048620C228A62C862086301224A638863E8
:1024E000CA63104B0222DA61104A0F4B5362104B41
:1024F0005361106290620F4B5861104A0E4C146089
:102500000F4D55600F4E96600F4ED66014615561A9
:102510000F4C0E4A2260CA04CA61D86270BC704770
:102520000050005040510050595959590060005016
:1025300000330033C050005000C0C0C000E400E0D1
:10254000C0C0C0C0C0C04080C000C0C0112C0400CA
:1025500000E100E010B500070DD500210846FEF7A8
:1025600023FD0548FFF770FA00F024F8012001F080
:1025700043FD01F0F1F810BD50C3000010B50B4C45
:102580002068400605D502F0F3FAA069402108430F
:10259000A061074C2068C00707D002F01BFA02F0C8
:1025A000F7F8A06801210843A06010BD0040004872
:1025B000000002480748062102688A430260026858
:1025C0005206520F012AF7D10348016980221143B4
:1025D0000161704700E001484040005010B4022102
:1025E000094B0A4806241960026822430260026807
:1025F0005206520F072AF6D10548016980229143FD
:10260000016110BC704700000841004000E0014833
:102610004040005010B502F065F910BD704770479A
:102620007047704710B40D484179032913D30C4902
:102630000D4A0B880B49002B098807D00B4B32241D
:102640001B8863439B0A5918118000E01180002108
:10265000417110BC7047491CFAE700008402001861
:102660003C0100181C010018520100182401001838
:10267000F8B53E483E4D0188491C0180296800207C
:102680003C4F490503D52868B843286001203A4CDF
:10269000608202F047F902F01DF938490880618A2A
:1026A000002902D0296839432960C1B200260029D7
:1026B00003D02E490E8032490E70C00702D001208F
:1026C000A07200E0A67229680020490503D5286899
:1026D000B84328600120608200F06CFB2948C17873
:1026E000880728D528480288D20708D0274A1278B8
:1026F0009207920F227002885208520002800288CC
:10270000920708D5214A1278D206520F62700288C9
:1027100002239A4302800288520708D51B4A127886
:102720005206920FA270028804239A430280154831
:10273000FD221140C1702178154800290FD00129D0
:102740000FD0022910D001210170A08AFFF702FFEB
:10275000608A002802D0286838432860F8BD0670D7
:10276000F3E702210170F0E70421EDE730010018E2
:1027700000E100E000040000600000187400001890
:10278000AD010018FC0200185C0000184C00001895
:10279000B401001801210648C907416001214162C6
:1027A0000162022141630021C16041617047000064
:1027B0000030014805280AD2064AC0000121401E07
:1027C000526B81400A40C240D007C00F70470020C2
:1027D000704700000040005010B50C460902CB17AE
:1027E0001B0E59180912401A1146FDF7E9FC001991
:1027F00010BD000010B506480078012805D0022859
:1028000002D10448FFF720F910BD7D200001F9E74F
:10281000B6010018204E00002A480078012803D095
:102820002948007801284BD128480078002847D152
:10283000F8B5274805882748068827483146FDF718
:10284000B1FC264C3146A0622548FDF7ABFCE062A6
:102850002449284648433146FDF7A4FC2149224D2E
:10286000A060884201DB296005E0002802DC00202E
:10287000286000E02860207807281FD31B482F68B5
:102880000688216BB81BFDF79BFC8019E060C01B1C
:1028900001F01AFF60610A2801DC286800E0E068A6
:1028A000206113480022825E12480021415E0648E2
:1028B000007800F087FB00202070F8BD401CFBE78B
:1028C0007047000094010018950100189601001847
:1028D000CC0100181C010018AC42890084000018CB
:1028E0002884D500CF070000380100183C010018EB
:1028F0003E010018D0010018F0B53348364C077877
:10290000324D334B334E227801210020012F17D056
:10291000324F3F78012F13D0022A1DD0012A1BD03D
:10292000022232702E4A20701278002A35D02E4AA8
:102930002C4810801970FFF7C5FAFEF7D3FAF0BDE6
:10294000022A03D0042A01D0032AE7D13070274994
:10295000288008701870F0BD30702880234D264EF6
:102960002870234D012A28701870224D234B06D160
:102970001A78002A0ED0224A5278D20903D0287041
:1029800018703070F0BD2970187031701D492070BA
:102990000870F0BD28701970F0BD1B4A1278002A2B
:1029A000CBD11A4A11701A4A11701A4A11701A4A78
:1029B00018701070194A1080194A10601948016087
:1029C00019482880B9E700008E0100183C01001862
:1029D00094010018B6010018B80100189101001800
:1029E000A5010018EC2C0000CC010018B70100185C
:1029F0009601001883010018840100188501001851
:102A00003803001816010018AB01001899010018CE
:102A10009A0100189D01001895010018D2010018B4
:102A20006401001868010018CF070000F8B52D48B0
:102A30002D4C01782D4D2E4E2E4A002001291BD001
:102A40002D490978012917D02C4B01211F78042F1B
:102A500016D0032F14D021701870294B1B78002B2F
:102A60001DD0294B274818801170FFF72BFAFDF76E
:102A7000DDFD01F01FFAF8BD20702880307008E0FD
:102A8000224F3F78012F06D02070288020493070D7
:102A900008701070F8BD1F4A11701870F8BD1E4BF9
:102AA0001B78002BE5D11A4B187010701B4A11705F
:102AB0001B4A11701B4A11701B4A10701B4A107080
:102AC0001B4A10801B4A10601B4A10801B4A108052
:102AD0001B4A10601B4A11601B4929801B49087062
:102AE000C7E700008E010018B60100183C0100186D
:102AF000B70100189401001891010018B8010018DE
:102B0000A5010018EC2C0000CC01001818010018D9
:102B10009601001819010018AB010018990100185E
:102B20009D0100189A0100189C010018AF010018BF
:102B3000D201001864010018340100187A0100184D
:102B40007401001868010018CF0700008501001803
:102B5000F8B55F4F5F4D3878002400286AD15E4891
:102B60000078012866D1287803287DD05B495D4B29
:102B70000A78195F5A4E0123022A5CD0042A59D1DF
:102B80003B70022802D0002830D052E05648574A05
:102B900001800020105E401A01F096FD54495D4A04
:102BA00008805249088050485249048052480180A8
:102BB00053495248088053497720088052498A2057
:102BC000088052495F200880514909200880472029
:102BD000414211805049088050495148B1600180FC
:102BE000032028704F480021017022E03D484149F0
:102BF00004803D48474A04803F48018040493F489F
:102C000008804049772008803F498A2008803F4952
:102C10005F2008803E4909200880472041421180FA
:102C20003D4908803D483E49B06008803D482B70D2
:102C300004703C7043E00122254B3B4F1A70012881
:102C400002D0002824D038E02848002201802648FD
:102C5000825E881A01F038FD2549224A08802349FE
:102C600008800146108000E030E05F3838802F4A4D
:102C700008462F3810804720B060081A2C4A2D498A
:102C800010808E3008802C4901200870032013E04A
:102C90001648264A018008465F3838803030108058
:102CA0004720B060224A081A10802248473101802C
:102CB00021490120087002202870054804702878F6
:102CC000002803D1174804701B480470F8BD0000A9
:102CD000870100181001001811010018B801001830
:102CE000C40000183E010018580100185A010018CD
:102CF0005C01001859030000D40100181D050000F4
:102D0000D6010018D8010018DE010018E0010018F3
:102D1000DC010018E4010018E60100181D0900009C
:102D2000EC01001817010018E2010018DA01001880
:102D3000E8010018EA0100181601001810B40B4948
:102D40000120C86009204004086200208860084A09
:102D5000802313615061074BD863074CE060032464
:102D6000D4620222DA62486210BC70470040005010
:102D70004040005080400050C04000500B483C2272
:102D80004260002181600261C16041618161016036
:102D90001222426281620263C16241638163012245
:102DA0000262034841600161C160704700800248CF
:102DB00040800248F0B42D4C2D4A217AD3788908FE
:102DC0009B0789009B0F1943FB2631401679264D3E
:102DD000B606360E3143F72631405679287AF60684
:102DE000360E3143EF2631409679FD273607360EF1
:102DF0003143DF263140D679384002231843760725
:102E00001843360E18433143184321721843194EA4
:102E100028723678012E25D0174E3678012E21D013
:102E200000261672BF263140167A1843B601314388
:102E3000567A4906490EF60131432172617A967A33
:102E400049084900D27A31433940520018431143AE
:102E5000184361721843287200200849C043088053
:102E6000F0BC70470126DCE7FC0200184C0000189B
:102E7000600000188E010018910100185E00001813
:102E8000F8B54448017801297ED00021017000F096
:102E90008DFCFFF753FFFFF771FFFDF715FBFDF703
:102EA0009BFB3D4DA8693D4C0006C70F3C4E27706B
:102EB000B06919220006C30F3A483B4912026370F9
:102EC000002F0DD0002B0BD003689B059B0D04D069
:102ED000364F7B435B1A9B011B0CA380934222D28B
:102EE000A378002B25D1324F01F0CEF93870A869B4
:102EF0000006C00F2070B1690906C90F6170002873
:102F000014D0002912D0274800688005800D05D014
:102F1000264948434910401A8001000C1921090232
:102F2000A080884202D30120A07002E0A07800288F
:102F3000DAD0FFF72FFCFEF737F9FDF75FFF00F05F
:102F40002FFE00F017FEFFF779F9FEF7F5F8FFF70F
:102F500061FBFFF743FB174904200A6882430243E1
:102F60000A60154A1168814301431160134A4020E9
:102F700011688143014311601149C0000880FFF7C7
:102F8000A3FA0120034900E001E00870F8BDFFF753
:102F9000E7F9F8BD12010018004000407800001861
:102FA00000C0014850C00148A53C00004B7900001A
:102FB000EE01001800400048005000480C0001409D
:102FC00004C00040F8B52E4F2E4C1546012801D004
:102FD000208A51E0681A01F077FB2B494843A16B26
:102FE000FDF7EEF82949A0610968884201DBE1613B
:102FF00040E0E36A0021984239DC6268022695428B
:1030000006D16288521C92B26280052A01D307E081
:103010006180042801DC66702CE06170E36129E0C6
:103020001B48667001701B481E4A01701A480170E7
:103030001A4801701A4801701078401C10701A4A22
:103040001078401C107019480278521C0270184801
:10305000184A0378012B02D0022B02D003E003238D
:1030600000E001231370144A1170017002E06180C6
:103070006170E0616560A08B38806078F8BD000009
:103080003C01001884000018CF0700003801001828
:103090009401001895010018960100189901001874
:1030A0009A010018810100185E0100185F010018E4
:1030B000B6010018B8010018B701001810B4104983
:1030C0000A781049032A01D000200AE00E4A0023A2
:1030D000D35E0E4C0022A25E984204DD904202DADA
:1030E0000220087007E0984201DC0320F9E79042D3
:1030F00001DB0120F5E708780549087010BC70472E
:103100001001001854010018E0010018DA0100183D
:103110006300001810B5074C0749E089884201D2C6
:1031200001F04AF8E0890549884201D900F0F6FF2C
:1031300010BD0000DC00001834210000384A0000F7
:1031400010B501F0A1F81649087000F0C9FD154846
:103150000078012822D100F0C5F9FEF72BF81248BB
:103160000078012809D000F031FD00F099FCFEF74D
:1031700025FAFEF7B5FAFEF767FD0C490020085E58
:10318000FFF79CFFFFF748FB09484178042903D368
:1031900000214170FFF76CFAFEF7EEFE10BD000053
:1031A000EE01001812010018870100183E010018F6
:1031B000060200180E480078012817D110B50D48F6
:1031C0004178491C4170FEF71BFB0B4802880B48F5
:1031D00001880B480078FEF7FDF90A4801880A4883
:1031E0000078FEF773FDFFF795FF10BD70470000F4
:1031F000120100180602001824010018CE01001860
:10320000960100183C010018B6010018F8B53F4FB0
:103210003F4E38780024002873D03E4800780428B8
:103220003DD1B42002F07CFA3B490880FF201430E5
:1032300002F076FA394D298840183949088019205A
:1032400002F06EFA29884018364908801D2002F0E5
:1032500067FA2988401834490880142002F060FA7F
:103260002988401831490880022002F059FA29883B
:1032700040182F4908800F2002F052FA2988081AB6
:103280002C4908800F2002F04BFA298840182A495F
:103290000880FF20EB3002F043FA28490880387894
:1032A0000127032809D03470254804702548077089
:1032B0002548047025480470F8BD16480078022897
:1032C000F2D1142002F02CFA214D2988081A214944
:1032D00008800A2002F024FA2988081A1E4908806A
:1032E0000F2002F01DFA2988081A1C4908800F20B7
:1032F00002F016FA29884018194908803770D3E778
:10330000FFE7104804703470F8BD00001001001889
:1033100016010018B8010018D4010018580100184F
:10332000D6010018D8010018DE010018E0010018CD
:10333000DC010018E4010018E6010018EC01001897
:103340008201001817010018B6010018B701001813
:103350005A010018E2010018DA010018E80100180B
:10336000EA010018F8B52E482E4900780A7803467D
:10337000134301212C4E002B08D12C4B7D241B889C
:10338000E400A34202D8F379012B05D0002802D033
:10339000002A00D0F171F8BD264A0027244BD75FE0
:1033A0000020254A185E1278244D0024B84205DD1D
:1033B000234B1F5FB84201DA042A15D0214B0027A6
:1033C000DF5FB84206DA204B0027DF5FB84201DD3D
:1033D000022A17D028781D4A32281BD31C481170A6
:1033E00004701C48047018E01B48048010480480D6
:1033F0001A4804701A4801701A480470FFF706FF53
:103400002C700AE01849088018490880FFF7FEFE72
:103410002C7002E0401C28701470F471F8BD00009C
:10342000B6010018B7010018840200182401001822
:103430003E010018E4010018B801001880010018CE
:10344000E6010018EA010018E8010018AC010018B4
:103450001701001816010018580100189E010018E5
:1034600014010018500100185A0100185C010018DE
:10347000184800694105490D1748CA0706D00422BB
:10348000C270164A13685B0A5B0213600A0701D513
:103490000522C270CA0601D50722C2708A0601D56C
:1034A0000822C2704A0601D50622C2700A0601D55A
:1034B0000122C2708A0701D50322C270490701D5D3
:1034C0000221C17006490A68D20AD2020A60C07895
:1034D0007047000000400050780000187040005015
:1034E0001040005010B500F08DFDFEF7E3FE1148CE
:1034F0000078012803D11048007801280ED00F4928
:103500000878032809D0002008700D4908700D497B
:1035100008700D4908700D49087010BDFEF75CFD7C
:1035200000F016F800F05EF9FEF744FAFFF71AFF14
:1035300010BD0000120100188B010018B70100181F
:10354000B6010018940100189601001895010018A2
:10355000F0B52F49002508782E4C00283FD02E4882
:10356000012203887D20C000834226D3E08C2B4EAD
:103570002B4FB0420BD3022020702A480D700580DB
:1035800029483D70057029480570E58402E0401C1B
:10359000E0842270E08D83420AD3244824490570D8
:1035A000214805701F483D70018000F06BFF01E06D
:1035B00000F0F8FE6570A57025E0608DFF212D31CB
:1035C000884208D3A078032801D3627005E0401C2C
:1035D000A070658501E0401C6085E58414E0154815
:1035E00015490088164A401881B214486184008841
:1035F0005043000CA084814201D3E08500E0E185C6
:10360000E5842585A58565850E480088A081F0BDE7
:10361000B60100188402001824010018307500005B
:10362000950100183C01001894010018960100183B
:10363000CF070000D2010018102700005201001827
:10364000001301003E010018F0B4EFF31080C5072D
:10365000ED0F72B60221364802688A4302600168A3
:1036600049084900016033489821C16232490A681B
:10367000520852000A60A823C3629821C1622F4AEF
:10368000C02114688C430C431460C3629821C1624A
:1036900010210163C3629821C162294902144A6062
:1036A000A822C2629822C26202158A60A821C16261
:1036B0009821C162234902220C68944314430C6090
:1036C000A824C4629824C4621F4E0C689704B443B3
:1036D0003C430C60A824C4629824C46276100C6831
:1036E0005704B4433C430C60A821C16214494C68A0
:1036F000E407FCD09824C46200260E63C362134E14
:1037000002273668BE431643104A1660C462104A48
:103710008A61C362C4620F4A11684C0864000121C7
:103720000C431460C362002D00D162B6F0BC704738
:1037300024500050805000500051005070500050F4
:103740004050005044500050080008000050005005
:103750000113000154500050104801684906490FF8
:103760000BD0026806218A43026001684906490FAE
:103770000129FAD16420FEF767F90948006800F0D2
:103780009BFD012000F072FD72B698200549C862C9
:1037900005490220086020BF20BFFEE700E0014885
:1037A0000040005080500050405000500949002017
:1037B0004863094A01239363D0639823CB62106165
:1037C000A822CA6215228A63C8630549034A0A60AF
:1037D00008617047805000504050005002020000C5
:1037E000C0500050F0B415491248CB89124A0678EF
:1037F0005C1C00201578A4B2062E0FD237007F443F
:103800003F79FF19BF44020A0A0A0A0F012D03D1AA
:10381000FF25F535AB4203D31070C881F0BC70476B
:10382000CC81F0BC7047012DF6D1FF25F535AB42B8
:10383000F6D3F1E7B80100186400001884020018FC
:10384000084A0420116881431160074A11688143C6
:103850001160064940200A6882430A6004498000DA
:103860000880704700400048005000480C000140AC
:1038700004C00040F8B53E4900250C783D494D5F35
:103880003D49CB1C4A1C042C5BD0032C59D03B4E29
:103890000027F75FBD4254DD012852D00020087098
:1038A00048708870087110725072187158711071D8
:1038B000507133480078C870324800681872020AA4
:1038C0005A72020C9A72000ED8722F480088187330
:1038D000000A58732D48007848742D480078887481
:1038E0002C482D4900680871020A4A71020C8A713D
:1038F000000E2A4AC87110680872030A4B72030C42
:103900008B72030ECB72401C10607E211A4800F0AF
:1039100091FE234C234960800877000A487762397A
:103920000120FEF73BFC7E211F4800F083FE1F496B
:1039300060800877000A487762390820FEF72EFC7D
:10394000F8BD0D70280A487019488C70007808710D
:10395000184800881072000A5072174800881871C1
:10396000000A5871154800881071000A5071A0E7CC
:10397000B80100183E010018B8040018E001001852
:1039800014010018600100184E0100188E01001883
:103990005F0100187C010018FA040018BC0100182F
:1039A000400200181A050018B80300181A0400187D
:1039B000100100185C0100185A0100185801001885
:1039C000F0B43048304B0478457826462E43002129
:1039D0000122002E04D0002C04D0012C08D009E0D4
:1039E000817008E0012D05D1042484701A7003E071
:1039F000002D1CD0827019708478C578234BAC429E
:103A000039D18588224E6D1CADB28580B54223D850
:103A10002E46FF27323EC337BE4217D8022C0AD0AB
:103A2000042C0AD0002C0BD01A701A491CE0022476
:103A300084701A70E0E7032100E0052119701BE093
:103A4000154A1170134A1970117015E0FF21F531F4
:103A50008D4211D31C700FE01D788680002D05D09B
:103A60000C491A700A700C490A7005E00A4A117074
:103A7000084A117000E08180C47008491878087005
:103A8000F0BC7047080200186B000018B201001863
:103A900060EA000067000018B0010018B1010018CA
:103AA00010B50120FEF786FE044C20700220FEF7C0
:103AB00081FE6070FFF784FF10BD0000080200184F
:103AC00002480168491C016070470000F8020018B4
:103AD00009480849416100218161016904221143BB
:103AE000016101690222114301610169012211434F
:103AF00001617047409C000000E000E010B50848FC
:103B00009821C162C162074A02211160A821C162E5
:103B1000FFF79AFDFFF7DCFF00F09CFB10BD0000F3
:103B2000805000502050005010B5FEF7EFFAFCF71F
:103B3000EFFD0D490820FEF767FB0C4C00282061C3
:103B400011D10B48417F027F08021043E0807E21A3
:103B5000054800F06FFDA080E188814203D08121FB
:103B60000148FCF71BFB10BDB80300181002001839
:103B70001A0400180748064981600161102141605C
:103B8000002101600221C1610449034808607047B7
:103B9000F0D8000000500048005A6202F0020018FD
:103BA00007480649816001610021416001600121EF
:103BB000C16105490348086070470000FFFF00002D
:103BC00000400048005A6202F0020018F8B5344E76
:103BD000344D30880024344F0A2848D333487D219F
:103BE0000088C900884211D3314A1278002A02D0D5
:103BF000304B01221A70FCF7D5FA7060B16840436F
:103C000040182860B0602C48048019E028680A2811
:103C100003D30A382860B06001E02C60B460264805
:103C2000264A0188914209D325490A78002A02D000
:103C3000521E0A7000E00C70048001E0491C0180F3
:103C4000204821490078097808430ED11F49286887
:103C5000884203D21A490978202902D901203870F4
:103C600003E01B49884200D83C70348001E0401CCE
:103C7000308039781748012901D00480F8BD0188C7
:103C8000154A491C89B201809142F7D33C70104912
:103C90002960B1600A490C7010490C700480F8BDAD
:103CA00024020018600100188E0100182401001879
:103CB00010010018AA0100184C010018EE020000C3
:103CC0005F010018B7010018B6010018A0F7030043
:103CD00030E602004E010018307500005E01001849
:103CE00070B45A484188002902D04188491E418059
:103CF0005749584B0C7801220021012C44D01970EF
:103D0000FF23F533C380544B544C1B78544D554E10
:103D1000012B42D0217029703170C181524B534C1C
:103D20001B78012B49D02170514B524C1B78012B31
:103D30004DD02170642303814F4B504C1B78012BD5
:103D40004ED021706E2343814D4B4E4C1B78012B7E
:103D50004FD04D4B21701B8883814C4B1C784C4BB2
:103D6000012C4FD019804B4B4B4D1C784B4B012CE9
:103D70005AD029700A241C800378012B5DD00722B9
:103D80008280417070BC7047C488002C03D0641ED0
:103D9000C4801970B7E71A70B5E7C3891E2BBDD868
:103DA0005B1C9BB2C381042B00D92270082B00D965
:103DB0002A70152BB2D93270B0E7394D2B88002B01
:103DC00003D05B1E2B802170AEE72270ACE7038925
:103DD000002B03D05B1E03812170ADE72270ABE79F
:103DE0004389002B03D05B1E43812170ACE7227016
:103DF000AAE78389002B03D05B1E83812170ACE787
:103E00002270AAE71C88641CA4B21C80254B9C422B
:103E1000A9D8254B1B78032BA5D3244B1B78032B48
:103E2000A1D0234B19709EE71C88002C03D0641E80
:103E30001C802970A0E72A709EE78388002B02D09F
:103E40005B1E83809DE7427070BC70473002001893
:103E50009D010018A401001898010018A101001884
:103E6000A2010018A30100189B010018A801001866
:103E700099010018A50100189A010018A70100185F
:103E80009C0100189F010018440100189E010018B1
:103E90004A01001897010018A601001846010018F1
:103EA000480100188813000050010018B5010018DF
:103EB000140100181F480078012839D11E480078E5
:103EC000012835D01D484078800631D41C4A11782D
:103ED00032292DD81B480078012829D110B41A485E
:103EE0000023C35E194C0020205E001D83421DDCB0
:103EF000174B00201870174B1B4C1870164B491CA1
:103F00001870164B1880164B1870164B1870032338
:103F10002370164B1870164B1870117015490878DD
:103F2000401C087014490878401C087010BC704789
:103F30007047000017010018190100183803001815
:103F400082010018140100183E010018DC0100185D
:103F50009401001895010018960100183C01001802
:103F6000B6010018B7010018B8010018990100182F
:103F70009A0100185E0100185F01001810B50E4884
:103F8000406B0124C007002807D00C480068C00718
:103F900003D0FEF7F3FA0A4804600A48C169C9076A
:103FA00009D000688009C007C00F04D0FEF7E6FA08
:103FB00005494020086010BD005000500000024834
:103FC0000800024800400048184000480848C169FD
:103FD0008907C90F0AD000680006C00F06D010B5C7
:103FE000FFF7E8F803498020086010BD7047000023
:103FF000005000481850004810B572B6FFF73AFC60
:1040000062B610BDF0B43748374E03883748384A97
:10401000C48A611C8DB20021B34208D38182142C62
:1040200002D31170F0BC7047C582F0BC7047314EAE
:10403000B34203D88182142CF6D3F2E72E4C2478B5
:10404000002C15D1294C2D4E248A651CADB2B342EB
:1040500003D38182142C06D207E0294EB34206D83E
:104060008182642C01D3117002E0058200E001829C
:10407000244C7D261F19244CF6002478A4461B4CA2
:10408000658A6C1CA4B2B7420AD88182B54204D3B7
:1040900060460328C5D1F0BC70474482F0BC70472D
:1040A0001A4FDF19B74208D8194B81829D42F4D3C9
:1040B00060460328B5D1F0BC7047164C1B19164C4E
:1040C000A342F8D201824182C182818A104B994277
:1040D00003D901201070F0BC7047491C8182F0BCEC
:1040E0007047000052010018204E000084020018A2
:1040F0008B01001870170000610000185046000086
:104100004C1D000098BDFFFFB7010018B4E2FFFF8F
:1041100088130000CBDEFFFF3321000070B500F0F4
:10412000B3F81C491C4D08702878012830D1FFF7DE
:1041300087FBFEF73FFA00210846FCF735FFFEF744
:1041400059FB022415482C70007800280BD0144825
:10415000007800280FD01348007800280BD00120E9
:10416000FDF7FEFF0AE010480078012806D00F484E
:104170000078012802D00120FFF73EFF0C48012102
:104180000170C169491CC1610A480470FFF7E4FA73
:1041900070BD0000EE010018120100189201001815
:1041A000B7010018B60100181B0100181A01001809
:1041B000BC0200188C01001870B500F065F81C49AD
:1041C0001C4D08702878012830D1FFF739FBFEF725
:1041D000F1F900210846FCF7E7FEFEF70BFB02248D
:1041E00015482C70007800280BD01448007800285F
:1041F0000FD01348007800280BD00120FDF7B0FF46
:104200000AE010480078012806D00F4800780128FD
:1042100002D00120FFF7F0FE0C4801210170C169B6
:10422000491CC1610A480470FFF796FA70BD00008E
:10423000EE0100181201001892010018B7010018D1
:10424000B60100181B0100181A010018BC02001862
:104250008C01001803493F20486303480021416056
:104260000170704700600050F40200188007C02100
:10427000000E08400249086002490120087070479A
:1042800034600050F40200180849094B4A680020C5
:104290009A4202D80A78012A06D1064A3F20506382
:1042A000002048600870012070470000F4020018E8
:1042B000BB02000000600050024801684908490044
:1042C0000160704710E000E070B418481C4906789F
:1042D00017481C4A0078002506431648174B0478F7
:1042E000154809781278002E02D0002C19D019E058
:1042F0008679B14208D002261E70022903D1124EDF
:104300003678012E00D1C170C679B24202D00326A0
:104310001E70C270914201D1012600E00026A64223
:1043200000D01D708171C27170BC7047920100187D
:10433000AE010018B1010018D0000018B501001836
:10434000B4010018B30100181401001830B5054677
:104350001048114C01786079814200D0E170002250
:1043600000290ED00D4B0120187022816171FFF7DA
:10437000ABFF2079854202D02846FCF755FF257116
:1043800030BD20890A2802D305480270EEE7401CA0
:104390002081EBE7B1010018D0000018B50100182A
:1043A000AE01001830B42248224902780020012AC8
:1043B0003AD1214B1A88002A36D0204C2278022A82
:1043C00032D01F4D2A5E0C254D5FAA422CD18A8D1A
:1043D000642A25D3022121701A4A012111701A4A38
:1043E00010701A4A10701A4A10701A4A10701A4A3D
:1043F00010701A4A10701A4A10701A4A10701A4A2D
:1044000018801070194A1080194A1070194A1070DB
:10441000194A1070194A10701948017030BC704761
:10442000521C8A8530BC7047888530BC70470000BC
:10443000A7010018840200183C010018110100189F
:104440003E010018650000189A0100189901001833
:104450009D0100189401001896010018950100189C
:10446000B8010018B6010018100100185601001814
:104470008A0100188701001886010018B70100188A
:104480008D010018F0B44D484D4A0678002E01D039
:10449000FA2000E0962010804A480024045F4A4831
:1044A0000C2701460B8DC75F591C484D89B2BC4291
:1044B0007FD11288934279D345490020087045493D
:1044C000464A087044490870454917780978491CDC
:1044D000CCB244490978491CCBB243490968491C0C
:1044E000012F02D0022F5AD12BE004272F703F4D0D
:1044F000002E2880384D287015D03D4D2870384D3D
:104500002C70384C2370384B19603A493E4B087078
:1045100039491070087039490870394908703949AB
:10452000087001212AE02E4D2C702E4C23702E4B4A
:1045300019603249107008703149087031490870AB
:104540002DE002272F70002E1AD0284D10702880E1
:10455000294D2F4E28702A4D28702A4D28702B4D3A
:104560002870012535702B4D28702B4D28702B4D50
:1045700028701B4D2C701B4C23701B4B19600EE0D8
:104580001A4D2880164D2C70164C2370164B19604E
:104590001A49107008701A4908701A4908701349AE
:1045A00010700880F0BC704703E0FFE70185F0BCA5
:1045B0007047018500202870F0BC7047100100187A
:1045C000440100183E01001884020018B8010018C8
:1045D000950100189401001896010018B601001802
:1045E0005E0100185F0100187C0100183C010018F2
:1045F000B7010018190100189D0100189C0100184E
:10460000990100189A0100186C0100188101001826
:104610001601001883010018850100188401001894
:10462000C9B2017041708170C170017141718171B5
:10463000C1717047F3B58E4600218C462048714603
:10464000002928DD009A08276146555C00231E4694
:104650003A46EC0704D0BC1B611E01248C40234366
:10466000521E6D08761C1206120EF2D11906090CA4
:104670004840144A0821030402D54000504000E09D
:104680004000491E090680B2090EF4D16146491C5A
:104690008C467145D6DB102100220C4613460125BD
:1046A000C60704D0E71A2E467F1EBE403243491E7D
:1046B00040085B1C0906090EF2D190B202B0F0BDB1
:1046C000C35A000021100000002800DA4042704761
:1046D0000449002804D0012801D103480180704713
:1046E0000248FBE7FFFF00005E0000185C000018B6
:1046F00070B5084C607A00280BD0A07A401CC0B27C
:10470000A072052805D30025A57000F0B3FA6572E4
:10471000A57270BD3A00001870B50C4D287880075E
:1047200012D50B4CA079401CC0B2A0710A280BD343
:104730000C2809D30026A67000F046FB2878FD213E
:1047400008402870A671A67070BD000041000018D6
:104750003A0000180C488078002813D10B480169F2
:10476000822289B2902905D9C3685B095B01DB1DF0
:10477000C3600261742905D2C16849094901C91D94
:10478000C1600261704700003A000018805000507C
:1047900010B510490878C20704D0400840000870DE
:1047A00000F01EF80B48017A002912D0491ECAB247
:1047B00009490272891849788389C9180B0AC918EE
:1047C000C9B28181002A04D1044AC94391720021EF
:1047D000818110BD3A000018080300181403001866
:1047E000F8B5354C354EA1782046FB27407800259A
:1047F00007295ED20A007A44127992189744060675
:1048000003072B594600A57000F042FDF8BD2C4966
:1048100022790B782B499F1A7918487031780E2726
:1048200039433170A571934203D1E17814290ED038
:10483000A581A1894018010A4018C0B2A081521E6A
:104840001006000E2071E1D10420A070F8BD1D49B2
:104850000978A181EDE7217BC943C9B2A1818842D2
:1048600008D0194800783C2801D100F0ABF800F0DE
:10487000ABFA01E000F066FC3078FD2108403840DA
:10488000F72108403070A571A570F8BD0F49097A6D
:10489000A570814207D00E4801788908890001700F
:1048A00000F092FA01E000F047FD307838403070B7
:1048B000F8BDA570F8BD00003A00001841000018CE
:1048C0001B00001808030018190000181403001832
:1048D0003F0000180249002208880A807047000043
:1048E0001C00001810B500F0DBFB002010BD00001C
:1048F000054900200A68520505D508680122920280
:10490000904308600120704700E100E0002805D0D6
:1049100003480168012292021143016070470000C0
:1049200000E100E010B500F007F8FFF7F5FEFFF733
:10493000DFFEFFF70FFF10BD10B51D490878C20755
:1049400004D040084000087000F058FD19481A4A89
:1049500001780B0701D44B0726D513885B1C9BB24B
:104960001380164A93421ED9154A0B070AD51378AD
:104970001C09012C03D81B071B0F50331370F523A0
:1049800019400170C9B24B070DD513781C07240FCD
:10499000012C03D81B091B01DB1C137049084900BB
:1049A000FB221140017010BD0020108010BD0000DE
:1049B0001A00001802000018200000181A04000055
:1049C000000000180249F52208781040087070476E
:1049D00002000018F8B5FFF78BFF5C495C4D0880BA
:1049E00069685C4C6170296826464907C90F8A00CE
:1049F0003178FB2319401143574A31705169CFB2C6
:104A000038215162FFF782FF394638200140627831
:104A100000201143012300293FD1317849073CD4BC
:104A20001F4663720546A072FFF762FF474984463E
:104A30000880494948694022104348614869062274
:104A400090434861486938434861486940084000DC
:104A5000486138234B6288684008400088603F4ABC
:104A600016680420864316601669FF2000028643FC
:104A700016611069000A00021061166808200643DA
:104A80001660D0693843D0614B62A5726046FFF76B
:104A90003DFF00F099F9A770F8BDB906490F032949
:104AA000FAD00429F8D00229F6D031784F0702D481
:104AB00000F08AF9F8BDA778052F04D0002F43D065
:104AC00019433170F8BD2649264B0E7A964207D01D
:104AD000A070187880088000187000F075F9F8BD93
:104AE00018461B789A07920F022A0BD18A7A06265B
:104AF000A6706E68360A360216436E600A729A080D
:104B00009200027003789A07920F012AE7D10522DA
:104B1000A270154C154EA27A965D0E726F683F0A10
:104B20003F0237436F600D786D1E2D062D0E0D7000
:104B300006D099088900491C0170521CA272F8BD68
:104B400099088900891CF7E7A070F8BD1E000018BD
:104B5000000002483A000018805000500040004811
:104B6000140300183F000018080300180903001878
:104B700010B42348417A052904D0417A491C417276
:104B800010BC70471F490A6804239A430A60CA6927
:104B900052085200CA610A6808239A430A60002238
:104BA00042728A6889681204120E1202C9B20A435C
:104BB000C281C1898908C181C189C9060A0F124908
:104BC000CB685B095B011343CB60C2895209C28188
:104BD000C48906230722742C09D3C489902C06D8D3
:104BE000C2895205520D0A610222827001E083726D
:104BF0004272886801221043886010BC7047000030
:104C00003A000018004000488050005070B5144829
:104C100000240178054649084900C906C90E0170FB
:104C20006C70EC700F482C71847244604472047094
:104C300004720D480D4E0470AC71AC812C720B21C6
:104C40000B48FBF7ADFA4020307000F013F83078D5
:104C5000BF2108403070AC726C72AC7070BD000047
:104C60003A000018140300183F0000184100001813
:104C700008030018F0B44148002505600168802051
:104C800081433E4801600068402108433B49086079
:104C90003B4881680E20814339488160C0683849AB
:104CA00040094001C01DC86035488221016180680B
:104CB0000121334A084390604020506138205062FF
:104CC0005369062293432E4A536152692C4B0A437F
:104CD0005A615A698A435A6158622848006810220A
:104CE0001043264A1060274A10688B021843106050
:104CF0002548446B0C434463466B0224A643466339
:104D0000224806681E430660214E3068FF273F0494
:104D1000B8438F0538433060194E0620B063F56301
:104D20001C4D480228601C4846680E25AE4346606C
:104D3000456810263543456045688D4345604668A3
:104D40008025AE434660456840263543456005688A
:104D50000D4305600168A1430160056808218D438A
:104D60000560C16949084900C161C169A143C161C8
:104D7000106818431060F0BC704700000000024843
:104D80008050005000E100E00050005000E200E0E0
:104D900008E400E0C050005000400048074A0223E9
:104DA0001170074A1171D070032090700548017886
:104DB0001943017000209071704700001B0000181B
:104DC0003A0000184100001870B5FFF791FD134933
:104DD000134B088019780A0701D44A0718D5114CDB
:104DE0000125627A0226520852002A4362720E4A54
:104DF000147A344314720D4A1488260A02D0042609
:104E0000344314800A4C2478547014882C43148042
:104E1000F32211401970FFF779FD70BD1E000018D4
:104E2000410000184C000018FC0200181C0000187B
:104E300019000018F7B5164600212D4C05222D4DFE
:104E40006172AA702C4A26702C4F167014282BD031
:104E5000A981FFF74DFD2A4A002E108012D001983B
:104E60002649401EF30703D043784B70401C491C71
:104E7000730807D046784E7086788E70801C891C27
:104E80005B1EF7D11088FFF741FD2078401EC0B2AD
:104E9000287239184978AA8989180A0A8918C9B262
:104EA000A981002803D004E03878A881D1E7C9435C
:104EB000A1727978134A217253681B0A1B020B43B3
:104EC000536011492070002808780CD080088000B9
:104ED000401C08700120B8720C480422017811436C
:104EE000017003B0F0BD80088000801CF1E7000075
:104EF000140300183A0000181B00001808030018DB
:104F00001E000018000002483F0000184100001871
:104F100001490020887070473A000018F0B55B48DE
:104F200085B0817842780492594A022312780E465D
:104F30001A4396460278B13E9446C2780192554A89
:104F4000042E52780092534A03799278039244795E
:104F50008579C07902904F48827900784DD2370028
:104F60007F443F79FF19BF44014A487C624684452B
:104F700001D07F2A41D1049A062A3ED1019E009A8F
:104F8000964202D1039A934204D0019AFF2A34D167
:104F90007F2B32D1404F00239A009A18BE5CA64264
:104FA00015D1D2195278AA4211D19C001B19DB19D4
:104FB000029A9A70394A40311070012050709170F5
:104FC000FF20D070107150719071D07110E0334A91
:104FD0000326107056707F269670D17012261671B7
:104FE000FF2656715B1C9671DBB2D671022BD3D3B0
:104FF0002749704608221043087005B0F0BD254FC0
:10500000944501D19042F8D1049A062AF5D1009A2C
:105010003E46934202D1039A944203D0FF2BECD137
:105020007F2CEAD11B4AF37812799D4202D1029C6F
:10503000944204D0FF2DE0D1029CFF2CDDD1019CD5
:10504000002C15D11549087006204870F220887090
:105050000098C870039808714B718A717879C8718B
:10506000C6E7944501D19042C7D1049A062AC4D11B
:105070000A4A1070032050707F209070D170122067
:105080001071FF2050719071D071B1E729000018A4
:105090000200001822000018FC020018310000185D
:1050A00010B5FFF7B3FD00F07DF91C4A00201C4944
:1050B000108106230B708B7130234B708870C87081
:1050C00008714871FF241470164950700880164901
:1050D0000870D080D0701548154A01781170417859
:1050E000517081789170C178D170017911714179D5
:1050F000517181799171C179D171017A1172407ABE
:1051000050720C482146FFF78BFA0B482146FFF7F7
:1051100087FA0B4B09481ECB1EC010BD18000018A3
:10512000220000181C0000181A0000183C5700113B
:10513000FC02001829000018310000184C0000186B
:1051400048570011F8B54A48474E01880424474B98
:105150000A46377821431B78464D474CFB2F48D0F1
:10516000FF2F45D0120A00D001804370018802222F
:1051700011430180FFF7BCFB28802278082A29D838
:10518000501E00281BDD31783C48CB003C495918A3
:10519000D3070122D207491ED34203D042784A7076
:1051A000401C491C22784378521E521007D0877841
:1051B0004B70C3788F70801C891C521EF7D12078E9
:1051C000401E07D42D4909184A783178CB002C4964
:1051D00059180A542888FFF799FB30780223810078
:1051E000421828495118CA781A43CA70FFF770FA52
:1051F000F8BD120A00D001804370018802221143D9
:105200000180FFF775FB28802278082A22D8501EDB
:105210001D4F002817DDD30701221849781ED20739
:10522000D34203D04A784270401C491C22784B7804
:10523000521E521007D08E784370CB788670801C37
:10524000891C521EF7D12078401E03D40B4909183F
:10525000497839542888FFF759FB0C480122017816
:1052600011430170F8BD0000180000181900001863
:105270001C0000181E0000181B000018080300186E
:105280004C000018FC020018290000181A00001831
:10529000F8B52249224C234D087003463C2817D00C
:1052A0007D281BD0BF282CD0FE282AD000211E4EDE
:1052B000FF278A008A1892199278824226D18800A4
:1052C000081829708219D578E80910D014200FE049
:1052D000FB212970207008210D2014E01349097862
:1052E00089070ED52070082211490D2007E00D20F6
:1052F000ED07237006D00F4BC9001279C918FFF7CC
:1053000099FDF8BD1179FFF749FDF8BD491CC9B2F7
:105310002F700229CDD3FFF7FBFDF8BD190000184F
:105320000803001818000018FC02001802000018FA
:10533000310000184C00001810B5154801880A0A01
:1053400002D00422114301801249022209784170DF
:105350000388114C13430380E079884207D10F483A
:10536000437A5B085B004372207A104320727D29E8
:1053700001D100F06BF90A480078022806D28100BA
:1053800040180019C178FD221140C17010BD000005
:105390001C00001819000018FC0200184C0000182E
:1053A0001800001830B411491120087000208880BE
:1053B000C88008814870C860488108610C4B48610A
:1053C0001A78FD24520852002240FB242240F7257F
:1053D0002A401207120F1A70C87006490880064842
:1053E00001782140017030BC012070470000001896
:1053F00002000018200000181A000018F8B58B49A8
:10540000F52208788B4F1040087089498A4B0A783A
:105410001407240F10340C70854A002191808749AD
:105420003D780E78FB21B4460E40B64639461A78D0
:105430008E784978954204D07F2D02D09B799D4289
:105440000BD10B0909D13346B03B072B05D87B485C
:1054500071460170FFF762FDF8BD954201D07F2DC6
:1054600063D10F097349724A49783F010B075169AB
:105470001B0F1269002F04D0102F2AD0202F54D1D7
:1054800062E0002A51D000294FD01088694C984220
:105490004BD300201380002B07D923189B780B5483
:1054A000401C1378C0B28342F7D8614801780A07DC
:1054B00003D109090901491C01705C4801784A08B7
:1054C0005200FB210A4002705C4802780A400270D8
:1054D000A1E01B02574F3343062B26D9544D002A17
:1054E00023D0002921D016889E421FD3534C6646F4
:1054F0000420064326701380FA780A703A794A70BD
:105500007A798A70BA79CA70FA790A713978E97049
:105510005B1FEB80AA1C1178012319430907090FAF
:105520001031014311700520288174E0220940499F
:105530001201921C0A7040084000891C0007000FED
:10554000FB221040087066E0C70764D0384FFF7830
:10555000BD4251D105099D424ED1394B00251D80D8
:10556000334BDF88062F0ED9314CBF1FE780A51CB7
:105570000124204304070009240F401C06230001D6
:1055800004432C7018E03B46294F40084000FD8042
:105590000007BD1C000F2870284D77462F70244D42
:1055A000270703D124092401641C2C7040081F4CD8
:1055B0004000FB25284020701D4C12882089C5180A
:1055C000954228D8002B15D009181E48491EDA0725
:1055D00002D04E70401C491C5A081206120E09D007
:1055E00043784B7083788B70801C891C521E120686
:1055F000120EF5D125810EE022070D49120F012A66
:1056000003D822091201121D0A7040080749400000
:10561000FB221040087007480078002800D01BE7E4
:1056200009480822018811430180F8BD02000018D2
:105630000000001829000018220000181A000018A5
:10564000200000182A0000181C0000181E49002025
:1056500008801E49888800280CD10878020903D1E7
:105660000007000F103008701949F5220878104023
:1056700008707047F0B4154C164A6178491C090748
:10568000090F61701378144A137020231943517065
:1056900063890021E468FF25814204D2CE18A65D0B
:1056A0005718BE7002E0501885700020491CC9B21E
:1056B0000629F1D305490028888003D0801F8880FF
:1056C0009B1D4B81F0BC70472000001800000018A3
:1056D00002000018220000183100001870B5FDF714
:1056E000C7FE0B490870FCF709FA0A4D2878012813
:1056F0000CD1094C094E2078012802D130780128BC
:1057000001D0FDF7BDFB28780128F4D0002070BD42
:10571000AD0100180602001813010018120100184C
:1057200010B5054C002805D04B21C90048437E2107
:10573000FAF738FDA06010BDC400001832003280B6
:10574000013400B48102000080FFFFFFFFFFFFFF74
:1057500000FCFFFFFFFFFFFFBB000000C3000000D5
:105760008057001100000018FC020000F603001131
:10577000B8570011FC0200189C040000E40000115E
:10578000014C4B80FF01115AFC08014F4B1A0104D8
:10579000420A19080213C82A0119013C2C0102020D
:1057A00042092A460A229657019D09289EE92A0A9B
:0857B0006BFF7E014E000000BA
:04000005110000A145
:00000001FF
